:1000000000800020BD01000015860000CD850000A5
:10001000CD850000CD850000CD850000CD85000098
:10002000CD850000CD850000CD850000158600003F
:1000300015860000CD850000359E0000399E000029
:100040001586000015860000158600001586000044
:100050001586000015860000158600001586000034
:100060001586000015860000158600001586000024
:100070001586000015860000158600001586000014
:100080001586000015860000158600001586000004
:1000900015860000158600001586000015860000F4
:1000A000218100002D8100001586000015860000CA
:1000B00015860000158600001586000015860000D4
:1000C00015860000158600001586000015860000C4
:1000D00015860000158600001586000015860000B4
:1000E00015860000158600001586000015860000A4
:1000F0001586000015860000158600001586000094
:100100001586000015860000158600001586000083
:100110001586000015860000158600001586000073
:100120001586000015860000158600001586000063
:100130001586000015860000158600001586000053
:100140001586000015860000158600001586000043
:100150001586000015860000158600001586000033
:10016000CD760000058E0000158600001586000083
:100170001586000015860000158600001586000013
:100180001586000015860000158600001586000003
:1001900015860000158600001586000015860000F3
:1001A00015860000158600001586000015860000E3
:1001B000158600001586000015860000564B4CF28F
:1001C000205210B51A804DF628121A8000BF00BFC9
:1001D00008F024FA514B4FF010621A60504A9A60AE
:1001E000504ADA60504A136813F4807304D14F49BF
:1001F0000B604FF4A85313604D4B1A78110703D5C9
:100200001A7842F008021A704A4B4B492A221A7097
:100210004A4A4B4B8B4204D252F8040F43F8040B6A
:10022000F8E7484B484900228B4202D243F8042B9E
:10023000FAE74649464A002352F8230041F82300D2
:1002400001336F2BF8D1434B434A802103F8011B44
:100250009342FBD1414B3D4A1A60414B8A221A70AE
:10026000A3F5805324225A70A0221A709A7992071B
:10027000FCD59A79D406FCD43A4A937903F00C035E
:10028000082B384BF9D105221A7143225A719A79F9
:100290009006FCD5334A9179324B4906FBD5324A58
:1002A0004FF0817111600521516020221A709A79F6
:1002B00002F00C020C2AFAD12C4B2D4A1A602D4B5D
:1002C0002D4A1A6000225A60072243F8042C2B4A58
:1002D000C3F80C2D62B608F04BFC144B1B68DA0710
:1002E00005D5274808F0D8FA264B274A1A60274B2D
:1002F0001B785B0609D5234C234B22689A4204D114
:100300001F4808F0C9FA002323600BF085FF08F0AE
:100310008BF908F0B9F8FEE70E2005403080044064
:10032000823F04000100002B10D0034014D0034092
:1003300002D0074000E007402894FF1FC40E0100D0
:100340002087FF1F2894FF1F6C9EFF1F0082FF1F46
:100350000000000000E400E05FE400E008ED00E0E1
:1003600000500640004006404480044004800440A1
:10037000C010050014E000E03F190100000020203B
:1003800073B6165F1CE00340A5C3945A00F0074003
:10039000FFFFFFFFFFFFFFFFFFFFFFFFFFFFFFFF6D
:1003A000FFFFFFFFFFFFFFFFFFFFFFFFFFFFFFFF5D
:1003B000FFFFFFFFFFFFFFFFFFFFFFFFFFFFFFFF4D
:1003C000FFFFFFFFFFFFFFFFFFFFFFFFFFFFFFFF3D
:1003D000FFFFFFFFFFFFFFFFFFFFFFFFFFFFFFFF2D
:1003E000FFFFFFFFFFFFFFFFFFFFFFFFFFFFFFFF1D
:1003F000FFFFFFFFFFFFFFFFFFFFFFFFFFFFFFFF0D
:10040000FFFFFFFFFFFFFFFFFFFFFFFFDEF9FFFF23
:1004100010B5054C237833B9044B13B10448AFF33E
:1004200000800123237010BD2894FF1F00000000EE
:10043000C00E0100084B10B51BB108490848AFF3C6
:1004400000800848036803B910BD074B002BFBD0A0
:10045000BDE81040184700BF000000002C94FF1FAB
:10046000C00E01002894FF1F0000000043680B70BD
:1004700043681B0A4B70C3888B70C379CB70836849
:100480000B7183681B0A4B7143898B71C37ACB71E3
:10049000082070470B7843604A7843EA02234360A0
:1004A0008A7843EA02434360CA7843EA02634360BE
:1004B0000B7983604A7943EA022383608A7943EAAD
:1004C00002438360CA7943EA02638360082070476D
:1004D00000487047100501000048704720050100E2
:1004E000F0B50C460A788280064614F8010F002306
:1004F00042EA0022B2801A4614F8010F98400833ED
:10050000202B42EA0002F7D1971D062F58D901F19E
:10051000050E551D73464C1913F8010F03F8010C15
:10052000A342F9D100234B5518460D44C6F808E004
:1005300015F8014F84400830202843EA0403F7D11E
:10054000381D0344834209D909320A440446013460
:1005500012F8015F02F8015CA342F8D80138CF1805
:100560000024084407F8014C2246F06017F8015BAC
:1005700095400832202A44EA0504F7D1181D0444A6
:10058000A04209D203330B440246013213F8015F43
:1005900003F8015CA242F8D30D1901380844002386
:1005A00005F8013C3061A8786B780A5DED780104AC
:1005B00041EA0323134343EA0563201D7361F0BD41
:1005C000551D01F1050EADE70048704744050100D7
:1005D00000487047600501000B78F0B403710023F8
:1005E00006460C461D4614F8012F9A400833202B6E
:1005F00045EA0205F7D1681D052801F1040708D96D
:100600002C1D3B460C4413F8012F03F8012C9C428F
:10061000F9D10D4400232B71B760F0BC704700BFC7
:1006200000487047840501000048704798050100A4
:10063000004870471C08010000487047BC050100D5
:1006400043680B701A0C10B41C0A1B0E4C708A7095
:10065000CB7083680B711C0A1A0C1B0E4C718A71CB
:10066000CB71C3680B72180A1A0C1B0E48728A727F
:100670000C20CB7210BC70470B6843604B688360E2
:100680008B68C3600C20704700487047E00501008C
:1006900000487047F8050100004870471C0601003B
:1006A00000487047340601000048704758060100B2
:1006B000004870476C06010043680B701A0C10B4B8
:1006C0001C0A1B0E4C708A70CB7083680B711C0A5D
:1006D0001A0C1B0E4C718A71CB71C3680B72180A0D
:1006E0001A0C1B0E48728A720C20CB7210BC704719
:1006F0000B6843604B6883608B68C3600C20704755
:10070000004870479006010000487047A0060100AD
:1007100000487047C406010000487047D406010035
:10072000F0B50A4B0A4F1B680A4D0B498668C4682E
:10073000026A2E6083B00C600193DDF804E0074B81
:10074000C7F800E01A6003B0F0BD00BFFC9CFF1FBB
:10075000D894FF1F109CFF1F149CFF1F1C9BFF1FA2
:1007600090F8F804704700BF006A7047004870476F
:100770009006010000487047A0060100406B7047DA
:100780000048704758060100004870476C06010099
:1007900009F04EB943682DE9F0470B7043681B0A16
:1007A0004B70C3888B70C379CB704368002B00F00B
:1007B00085800A4600250426C36853F82530137146
:1007C0001C0C1F0A1B0E94715771D37143680135BD
:1007D000AB42344602F1040206F10406ECD804F1FF
:1007E000080204F1050A04F1060904F1070804F1FE
:1007F000090C04F10A0E04F10B0517460C340369C9
:100800008B5503691B0A01F80A30438A01F8093045
:10081000C37C01F808300369F3B101EB070E75469C
:100820000022836953F822300EF822301C0C1E0A75
:100830001B0EAC706E70EB700369013293423C4644
:1008400005F1040507F10407EBD804F1050C04F1E8
:10085000060EE51D3A460834C3698B54C3691B0A6A
:1008600001F80C30C38B01F80E30C37F4B55C369C0
:100870000BB30F4680460026D8F8243053F82600E4
:100880000CF03EFAB10005463A19002325FA03F0B0
:100890000833202B02F8010BF8D1D8F824300434A7
:1008A000381959582A4607F0F7FDD8F81C30013698
:1008B000B3422C44E0D82046BDE8F0870822174612
:1008C0000C240B254FF00A0E4FF0090C4FF00708CF
:1008D0004FF006094FF0050A042690E770B503793A
:1008E0000B70064680680D460CF00AFA2A4604464C
:1008F000002324FA03F10833202B02F8011FF8D15A
:10090000B168681D224607F0C7FD601D70BD00BFBD
:10091000F8B583880B7083881B0A4B700646806885
:100920000D460CF0EDF9030E010A020C6B71A87074
:100930002A71E97002460446B168A81D07F0ACFDB3
:10094000F0680CF0DDF9611D0246294406340023ED
:1009500022FA03F00833202B01F8010FF8D10434F8
:100960002819F168144407F097FD30690CF0C8F9B4
:100970002A190746002327FA03F10833202B02F82F
:10098000011BF8D1043428193A46316907F084FD77
:10099000381973692B540544190A1A0C1B0E697017
:1009A000AA70EB700430F8BD084609F02BB900BFFF
:1009B0002DE9F04F43680C689C4283B005460E4613
:1009C00000F2B3806C60002C00F0B88005F1080CD8
:1009D000334600274FF0040E9C795A79197993F821
:1009E0000780E868240444EA02220A4342EA0862D3
:1009F000AA60DCF8002040F827206A680137BA4274
:100A0000714603F104030EF1040EE5D801F1080864
:100A100047464B1D881DCA1D01F1090A01F10A0B49
:100A200001F10B0901F10C04305CF35C16F80E10B7
:100A300016F802E02A69000440EA03230B4343EA64
:100A40000E63934200F290802B613BB305F1140CCE
:100A5000F3194FF0000E9C785A78197893F80380B8
:100A6000A869240444EA02220A4342EA08626A614D
:100A7000DCF8002040F82E202A690EF1010E7245A4
:100A80003C4603F1040307F10407E4D804F1050A26
:100A900004F1060B04F10709B846083416F80B20D8
:100AA00016F80A0016F8083016F80970E9691204F9
:100AB00042EA0022134343EA07678F424ED8EF61B0
:100AC0007FB30027BC4605F1200E002319463019DC
:100AD00010F8012B9A400833202B41EA0201F7D18C
:100AE00004F104084144884509D2E31C33444246DA
:100AF000013213F8010F03F8010C8A42F8D372187F
:100B000008F1FF3802F801CC06EB08032B626A6A91
:100B1000DEF8003042F82730EB690137BB420C4663
:100B2000D3D8204603B0BDE8F08FA100C0680BF019
:100B3000ADFE6C60E860002C7FF448AF4FF0080811
:100B400047460C244FF00B094FF00A0B4FF0090AEF
:100B50000722062005234FF0040E65E7B900686AF6
:100B60000BF094FE6862AAE79900A86901930BF064
:100B70008DFE019BA86167E710B504460C48A36889
:100B8000E268616806F04AFFA368E26861680948A4
:100B900006F044FFA368E2686168074806F03EFF7C
:100BA000A368E26861680548BDE8104006F036BFFA
:100BB000689BFF1FB89BFF1FF894FF1F7895FF1FCE
:100BC0000B6803614B6843618B688361C3690C30B8
:100BD000184700BFF8B506464068C0F3C7520C4638
:100BE0000346002A58D002F56072110149B2C2F3DF
:100BF0000715C3F3C34211435F010022A171D9104D
:100C0000DB12217122706270A270E77063710021A3
:100C10000BF0AEFA002848D1E571B068C0F3C752B6
:100C20000346002A3ED002F56072110149B2C2F3B8
:100C30000715C3F3C34211435F010022A173D9100A
:100C4000DB12217322726272A272E7726373002157
:100C50000BF08EFA90BBE573F068C0F3C752034601
:100C6000EAB102F56072110149B2C2F30715C3F38C
:100C7000C34211435F010022DE10DB12A175227412
:100C80006274A274E7742675637500210BF070FA24
:100C900078B9E5751820F8BD15461146A9E715463F
:100CA0001146E4E715461146C3E765F07F02E2719D
:100CB000B3E765F07F02E2751820F8BD65F07F02AA
:100CC000E273C9E7CA78520970B4426103460879F1
:100CD00042EAC0025A61487942EAC02058618A79E2
:100CE000D20402F4F00202435A61CD798E792C01CC
:100CF00004F4FE6454EA161403F10C0005D0A4F5C4
:100D0000607442EAC4525A61CD7925F07F0542EA07
:100D100005625A61CA7A52099A610C7B42EAC4029E
:100D20009A614C7B42EAC4249C618A7BD20402F41F
:100D3000F00222439A61CD7B8E7B2C0104F4FE6489
:100D400054EA161405D0A4F5607442EAC4529A61BC
:100D5000CD7B25F07F0542EA05629A61CA7C520983
:100D6000DA610C7D42EAC402DA614C7D42EAC424B5
:100D7000DC618A7DD20402F4F0022243DA61CD7D87
:100D80008E7D2C0104F4FE6454EA161405D0A4F5FB
:100D9000607442EAC452DA61CD7D25F07F0542EAF3
:100DA0000562DA61CA7E52095A620C7F42EAC402C5
:100DB0005A624C7F42EAC4245C628A7FD20402F405
:100DC000F00222435A62CD7F8E7F2C0104F4FE6430
:100DD00054EA161405D0A4F5607442EAC4525A626B
:100DE000CD7F25F07F0542EA05625A6291F8232003
:100DF00052099A6291F8244042EAC4029A6291F838
:100E0000254042EAC4249C6291F82620D20402F4D0
:100E1000F00222439A6291F8275091F826602C0143
:100E200004F4FE6454EA161406D0A4F5607442EA91
:100E3000C4529A6291F8275025F07F0542EA056274
:100E40009A6291F82B205209DA6291F82C4042EA1A
:100E5000C402DA6291F82D4042EAC424DC6291F8BF
:100E60002E20D20402F4F0022243DA6291F82F50CD
:100E700091F82E602C0104F4FE6454EA161406D096
:100E8000A4F5607442EAC452DA6291F82F5025F05A
:100E90007F0542EA0562DA6270BC1B6B184700BF2F
:100EA000CB785B0930B483600A7943EAC20383607C
:100EB0004A7943EAC22282608B79DB0403F4F003AF
:100EC00013438360CC798D79220102F4FE6252EAE9
:100ED000151205D0A2F5607243EAC2538360CC7943
:100EE00024F07F0443EA04638360CB7A5B09C36028
:100EF0000A7B43EAC203C3604A7B43EAC222C26060
:100F00008B7BDB0403F4F0031343C360CC7B8D7B4A
:100F1000220102F4FE6252EA151205D0A2F56072B7
:100F200043EAC253C360CC7B24F07F0443EA0463EA
:100F3000C360CB7C5B0903610A7D43EAC2030361A2
:100F40004A7D43EAC22202618B7DDB0403F4F00395
:100F500013430361CC7D8D7D220102F4FE6252EACF
:100F6000151205D0A2F5607243EAC2530361CC7D2D
:100F700024F07F0443EA04630361CB7E5B09836151
:100F80000A7F43EAC20383614A7F43EAC222826145
:100F90008B7FDB0403F4F00313438361CC7F8D7FED
:100FA000220102F4FE6252EA151205D0A2F5607227
:100FB00043EAC2538361CC7F24F07F0443EA046395
:100FC000836191F823305B09C36191F8242043EADF
:100FD000C203C36191F8252043EAC222C26191F89D
:100FE0002630DB0403F4F0031343C36191F8274078
:100FF00091F82650220102F4FE6252EA151206D040
:10100000A2F5607243EAC253C36191F8274024F00D
:101010007F0443EA0463C36191F82B305B090362E8
:1010200091F82C2043EAC203036291F82D2043EA91
:10103000C222026291F82E30DB0403F4F003134362
:10104000036291F82F4091F82E50220102F4FE62C3
:1010500052EA151206D0A2F5607243EAC253036247
:1010600091F82F4024F07F0443EA0463036230BC0C
:1010700030207047CB785B0930B443600A7943EA8B
:10108000C20343604A7943EAC22242608B79DB049F
:1010900003F4F00313434360CC798D79220102F409
:1010A000FE6252EA151205D0A2F5607243EAC253FD
:1010B0004360CC7924F07F0443EA04634360CB7A35
:1010C0005B0983600A7B43EAC20383604A7B43EA8D
:1010D000C22282608B7BDB0403F4F0031343836042
:1010E000CC7B8D7B220102F4FE6252EA151205D000
:1010F000A2F5607243EAC2538360CC7B24F07F0484
:1011000043EA04638360CB7C5B09C3600A7D43EAE6
:10111000C203C3604A7D43EAC222C2608B7DDB0406
:1011200003F4F0031343C360CC7D8D7D220102F4F0
:10113000FE6252EA151205D0A2F5607243EAC2536C
:10114000C360CC7D24F07F0443EA0463C36030BCF9
:1011500018207047F8B505468068C0F3C7520C46A2
:101160000346002A00F0CF8002F56072110149B2F7
:10117000C2F30716C3F3C34211435F010022A171FA
:10118000D910DB12217122706270A270E770637156
:1011900000210AF0EDFF002840F0C780E671E86802
:1011A000C0F3C7520346002A00F0BC8002F560720B
:1011B000110149B2C2F30716C3F3C34211435F01E1
:1011C0000022A173D910DB12217322726272A27203
:1011D000E772637300210AF0CBFF002840F0BC8067
:1011E000E6732869C0F3C7520346002A00F09780CF
:1011F00002F56072110149B2C2F30716C3F3C3428C
:1012000011435F010022A175D910DB1221752274F0
:101210006274A274E774637500210AF0A9FF0028C4
:1012200040F09680E675A869C0F3C7520346002ACD
:1012300072D002F56072110149B2C2F30716C3F30E
:10124000C34211435F010022A177D910DB1221773D
:1012500022766276A276E776637700210AF088FF2D
:10126000002871D1E677E869C0F3C7520346002A27
:101270004FD002F56072110149B2C2F30716C3F3F1
:10128000C34211435F01002284F82610D910DB12FB
:1012900084F8241084F8202084F8212084F8222067
:1012A00084F8237084F8253000210AF061FF0028BB
:1012B00045D184F82760286AC0F3C75203462AB391
:1012C00002F56072110149B2C2F30715C3F3C342BC
:1012D00011435F010022DE10DB1284F82E1084F827
:1012E000282084F8292084F82A2084F82B7084F898
:1012F0002C6084F82D3000210AF03AFFC8B984F838
:101300002F503020F8BD1646114633E715461146DA
:10131000DCE716461146B2E7164611468FE7164639
:1013200011466BE71646114646E766F07F02E2710A
:1013300035E765F07F0284F82F203020F8BD66F095
:101340007F0284F82720B6E766F07F02E2778AE71B
:1013500066F07F02E27566E766F07F02E27340E7BF
:10136000F8B505468068C0F3C7520C460346002A0C
:1013700000F04D8102F56072110149B2C2F3071607
:10138000C3F3C34211435F010022A171D910DB12E4
:10139000217122706270A270E770637100210AF0FF
:1013A000E7FE002840F04E81E671E868C0F3C752BE
:1013B0000346002A00F0438102F56072110149B230
:1013C000C2F30716C3F3C34211435F010022A173A6
:1013D000D910DB12217322726272A272E7726373F8
:1013E00000210AF0C5FE002840F05281E67328690A
:1013F000C0F3C7520346002A00F01E8102F5607256
:10140000110149B2C2F30716C3F3C34211435F018E
:101410000022A175D910DB12217522746274A274A6
:10142000E774637500210AF0A3FE002840F02C81C8
:10143000E675A869C0F3C7520346002A00F0F98098
:1014400002F56072110149B2C2F30716C3F3C34239
:1014500011435F010022A177D910DB122177227698
:101460006276A276E776637700210AF081FE002893
:1014700040F00681E677E869C0F3C7520346002AC8
:1014800000F0D48002F56072110149B2C2F3071670
:10149000C3F3C34211435F01002284F82610D91020
:1014A000DB1284F8241084F8202084F8212084F8AA
:1014B000222084F8237084F8253000210AF058FE99
:1014C000002840F0D88084F82760286AC0F3C7520B
:1014D0000346002A00F0A78002F56072110149B2AC
:1014E000C2F30716C3F3C34211435F01002284F81D
:1014F0002E10D910DB1284F82C1084F8282084F8E0
:10150000292084F82A2084F82B7084F82D300021BB
:101510000AF02EFE002840F0A98084F82F60A86A07
:10152000C0F3C7520346002A7AD002F56072110157
:1015300049B2C2F30716C3F3C34211435F0100224D
:1015400084F83610D910DB1284F8341084F8302077
:1015500084F8312084F8322084F8337084F83530F0
:1015600000210AF005FE00287BD184F83760E86A84
:10157000C0F3C7520346002A4FD002F56072110132
:1015800049B2C2F30716C3F3C34211435F010022FD
:1015900084F83E10D910DB1284F83C1084F838200F
:1015A00084F8392084F83A2084F83B7084F83D3080
:1015B00000210AF0DDFD00284ED184F83F60286B41
:1015C000C0F3C75203462AB302F56072110149B253
:1015D000C2F30715C3F3C34211435F010022DE10BB
:1015E000DB1284F8461084F8402084F8412084F807
:1015F000422084F8437084F8446084F84530002128
:101600000AF0B6FD10BB84F847504820F8BD1646D6
:101610001146B5E615461146DCE716461146B2E717
:101620001646114687E7164611465BE716461146F1
:101630002EE71646114609E716461146E4E6164619
:101640001146BFE666F07F02E271AEE665F07F020A
:1016500084F847204820F8BD66F07F0284F83F20D8
:10166000ADE766F07F0284F8372080E766F07F02FE
:1016700084F82F2053E766F07F0284F8272024E7C0
:1016800066F07F02E277F6E666F07F02E275D0E66A
:1016900066F07F02E273AAE6CB785B0930B4836020
:1016A0000A7943EAC20383604A7943EAC22282602C
:1016B0008B79DB0403F4F00313438360CC798D79D9
:1016C000220102F4FE6252EA151205D0A2F5607200
:1016D00043EAC2538360CC7924F07F0443EA046375
:1016E0008360CB7A5B09C3600A7B43EAC203C360B1
:1016F0004A7B43EAC222C2608B7BDB0403F4F00323
:101700001343C360CC7B8D7B220102F4FE6252EA5C
:10171000151205D0A2F5607243EAC253C360CC7BB8
:1017200024F07F0443EA0463C360CB7C5B0903615C
:101730000A7D43EAC20303614A7D43EAC222026191
:101740008B7DDB0403F4F00313430361CC7D8D7DBB
:10175000220102F4FE6252EA151205D0A2F560726F
:1017600043EAC2530361CC7D24F07F0443EA04635F
:101770000361CB7E5B0983610A7F43EAC203836115
:101780004A7F43EAC22282618B7FDB0403F4F003C9
:1017900013438361CC7F8D7F220102F4FE6252EA03
:1017A000151205D0A2F5607243EAC2538361CC7F63
:1017B00024F07F0443EA0463836191F823305B09DA
:1017C000C36191F8242043EAC203C36191F8252044
:1017D00043EAC222C26191F82630DB0403F4F0032D
:1017E0001343C36191F8274091F82650220102F477
:1017F000FE6252EA151206D0A2F5607243EAC253A5
:10180000C36191F8274024F07F0443EA0463C36175
:1018100091F82B305B09036291F82C2043EAC20354
:10182000036291F82D2043EAC222026291F82E3021
:10183000DB0403F4F0031343036291F82F4091F8A3
:101840002E50220102F4FE6252EA151206D0A2F5D1
:10185000607243EAC253036291F82F4024F07F0480
:1018600043EA0463036291F833305B09836291F8C1
:10187000342043EAC203836291F8352043EAC2224E
:10188000826291F83630DB0403F4F0031343836281
:1018900091F8374091F83650220102F4FE6252EA84
:1018A000151206D0A2F5607243EAC253836291F822
:1018B000374024F07F0443EA0463836291F83B30AD
:1018C0005B09C36291F83C2043EAC203C36291F80A
:1018D0003D2043EAC222C26291F83E30DB0403F4A9
:1018E000F0031343C36291F83F4091F83E50220148
:1018F00002F4FE6252EA151206D0A2F5607243EAC3
:10190000C253C36291F83F4024F07F0443EA04636A
:10191000C36291F843305B09036391F8442043EAC2
:10192000C203036391F8452043EAC222026391F89F
:101930004630DB0403F4F0031343036391F847409C
:1019400091F84650220102F4FE6252EA151206D0C6
:10195000A2F5607243EAC253036391F8474024F052
:101960007F0443EA0463036330BC4820704700BF30
:10197000F0B585B0364A01920368364D03950322CF
:101980008DF808201B6834498B425AD10023382136
:10199000044680F8232205F1300E80F8241280F8E6
:1019A000253280F8263280F8273200F50A772E4655
:1019B0000FCE764538607960BA60FB60354607F136
:1019C0001007F4D103CD00227960C2234FF0FF0E3F
:1019D000FE263D250721386084F8203284F81CE279
:1019E00084F81D6284F81E5284F81F2284F8222293
:1019F00084F8211204F2212304F25F2001E013F89D
:101A0000011F83420A44FAD1D243144E84F8602263
:101A100004F21B2504F5187703E008F0F3F8BD4243
:101A20000BD0626815F8011F13681B68B3420846A3
:101A3000F3D010469847BD42F3D14FF0FF3005B0C8
:101A4000F0BD01AA072198474FF0FF3005B0F0BD67
:101A50002C040100F8060100E92B0000A909000090
:101A60001F4B10B41A681368506819780478507ABC
:101A7000137A044201EA03011AD0937A03F00303B4
:101A800009B143F0040343F008039910013B91723C
:101A90000D2B0BD8DFE803F01E0719070A141E1ED2
:101AA000140A0719071ED368013BD36010BC7047A6
:101AB000937A03F003030029E7D043F00403E4E73B
:101AC000D36810BC023BD3607047D36810BC0233AC
:101AD000D3607047D36810BC0133D360704700BF38
:101AE000709CFF1F1F4B10B45A6813685068197818
:101AF0000478507A137A044201EA03011AD0937AE7
:101B000003F0030309B143F0040343F00803991001
:101B1000013B91720D2B0BD8DFE803F01E0719076C
:101B20000A141E1E140A0719071ED368013BD3604E
:101B300010BC7047937A03F003030029E7D043F009
:101B40000403E4E7D36810BC023BD3607047D3685A
:101B500010BC0233D3607047D36810BC0133D3602C
:101B6000704700BF709CFF1F1F4B10B49A6813682A
:101B7000506819780478507A137A044201EA030114
:101B80001AD0937A03F0030309B143F0040343F03E
:101B900008039910013B91720D2B0BD8DFE803F07D
:101BA0001E0719070A141E1E140A0719071ED368F8
:101BB000013BD36010BC7047937A03F00303002904
:101BC000E7D043F00403E4E7D36810BC023BD360E2
:101BD0007047D36810BC0233D3607047D36810BC21
:101BE0000133D360704700BF709CFF1F1F4B10B4C0
:101BF000DA681368506819780478507A137A0442C6
:101C000001EA03011AD0937A03F0030309B143F008
:101C1000040343F008039910013B91720D2B0BD87C
:101C2000DFE803F01E0719070A141E1E140A07191D
:101C3000071ED368013BD36010BC7047937A03F052
:101C400003030029E7D043F00403E4E7D36810BCA2
:101C5000023BD3607047D36810BC0233D360704737
:101C6000D36810BC0133D360704700BF709CFF1F66
:101C70001F4B10B41A691368506819780478507AA9
:101C8000137A044201EA03011AD0937A03F00303A2
:101C900009B143F0040343F008039910013B91722A
:101CA0000D2B0BD8DFE803F01E0719070A141E1EC0
:101CB000140A0719071ED368013BD36010BC704794
:101CC000937A03F003030029E7D043F00403E4E729
:101CD000D36810BC023BD3607047D36810BC02339A
:101CE000D3607047D36810BC0133D360704700BF26
:101CF000709CFF1F1F4B10B45A6913685068197805
:101D00000478507A137A044201EA03011AD0937AD4
:101D100003F0030309B143F0040343F008039910EF
:101D2000013B91720D2B0BD8DFE803F01E0719075A
:101D30000A141E1E140A0719071ED368013BD3603C
:101D400010BC7047937A03F003030029E7D043F0F7
:101D50000403E4E7D36810BC023BD3607047D36848
:101D600010BC0233D3607047D36810BC0133D3601A
:101D7000704700BF709CFF1F1F4B10B49A69136817
:101D8000506819780478507A137A044201EA030102
:101D90001AD0937A03F0030309B143F0040343F02C
:101DA00008039910013B91720D2B0BD8DFE803F06B
:101DB0001E0719070A141E1E140A0719071ED368E6
:101DC000013BD36010BC7047937A03F003030029F2
:101DD000E7D043F00403E4E7D36810BC023BD360D0
:101DE0007047D36810BC0233D3607047D36810BC0F
:101DF0000133D360704700BF709CFF1F1F4B10B4AE
:101E0000DA691368506819780478507A137A0442B2
:101E100001EA03011AD0937A03F0030309B143F0F6
:101E2000040343F008039910013B91720D2B0BD86A
:101E3000DFE803F01E0719070A141E1E140A07190B
:101E4000071ED368013BD36010BC7047937A03F040
:101E500003030029E7D043F00403E4E7D36810BC90
:101E6000023BD3607047D36810BC0233D360704725
:101E7000D36810BC0133D360704700BF709CFF1F54
:101E80001F4B10B41A6A1368506819780478507A96
:101E9000137A044201EA03011AD0937A03F0030390
:101EA00009B143F0040343F008039910013B917218
:101EB0000D2B0BD8DFE803F01E0719070A141E1EAE
:101EC000140A0719071ED368013BD36010BC704782
:101ED000937A03F003030029E7D043F00403E4E717
:101EE000D36810BC023BD3607047D36810BC023388
:101EF000D3607047D36810BC0133D360704700BF14
:101F0000709CFF1F1F4B10B45A6A136850681978F1
:101F10000478507A137A044201EA03011AD0937AC2
:101F200003F0030309B143F0040343F008039910DD
:101F3000013B91720D2B0BD8DFE803F01E07190748
:101F40000A141E1E140A0719071ED368013BD3602A
:101F500010BC7047937A03F003030029E7D043F0E5
:101F60000403E4E7D36810BC023BD3607047D36836
:101F700010BC0233D3607047D36810BC0133D36008
:101F8000704700BF709CFF1F1F4B10B49A6A136804
:101F9000506819780478507A137A044201EA0301F0
:101FA0001AD0937A03F0030309B143F0040343F01A
:101FB00008039910013B91720D2B0BD8DFE803F059
:101FC0001E0719070A141E1E140A0719071ED368D4
:101FD000013BD36010BC7047937A03F003030029E0
:101FE000E7D043F00403E4E7D36810BC023BD360BE
:101FF0007047D36810BC0233D3607047D36810BCFD
:102000000133D360704700BF709CFF1F1F4B10B49B
:10201000DA6A1368506819780478507A137A04429F
:1020200001EA03011AD0937A03F0030309B143F0E4
:10203000040343F008039910013B91720D2B0BD858
:10204000DFE803F01E0719070A141E1E140A0719F9
:10205000071ED368013BD36010BC7047937A03F02E
:1020600003030029E7D043F00403E4E7D36810BC7E
:10207000023BD3607047D36810BC0233D360704713
:10208000D36810BC0133D360704700BF709CFF1F42
:102090001F4B10B41A6B1368506819780478507A83
:1020A000137A044201EA03011AD0937A03F003037E
:1020B00009B143F0040343F008039910013B917206
:1020C0000D2B0BD8DFE803F01E0719070A141E1E9C
:1020D000140A0719071ED368013BD36010BC704770
:1020E000937A03F003030029E7D043F00403E4E705
:1020F000D36810BC023BD3607047D36810BC023376
:10210000D3607047D36810BC0133D360704700BF01
:10211000709CFF1F1F4B10B45A6B136850681978DE
:102120000478507A137A044201EA03011AD0937AB0
:1021300003F0030309B143F0040343F008039910CB
:10214000013B91720D2B0BD8DFE803F01E07190736
:102150000A141E1E140A0719071ED368013BD36018
:1021600010BC7047937A03F003030029E7D043F0D3
:102170000403E4E7D36810BC023BD3607047D36824
:1021800010BC0233D3607047D36810BC0133D360F6
:10219000704700BF709CFF1F1F4B10B49A6B1368F1
:1021A000506819780478507A137A044201EA0301DE
:1021B0001AD0937A03F0030309B143F0040343F008
:1021C00008039910013B91720D2B0BD8DFE803F047
:1021D0001E0719070A141E1E140A0719071ED368C2
:1021E000013BD36010BC7047937A03F003030029CE
:1021F000E7D043F00403E4E7D36810BC023BD360AC
:102200007047D36810BC0233D3607047D36810BCEA
:102210000133D360704700BF709CFF1F1F4B10B489
:10222000DA6B1368506819780478507A137A04428C
:1022300001EA03011AD0937A03F0030309B143F0D2
:10224000040343F008039910013B91720D2B0BD846
:10225000DFE803F01E0719070A141E1E140A0719E7
:10226000071ED368013BD36010BC7047937A03F01C
:1022700003030029E7D043F00403E4E7D36810BC6C
:10228000023BD3607047D36810BC0233D360704701
:10229000D36810BC0133D360704700BF709CFF1F30
:1022A0001F4B10B41A6C1368506819780478507A70
:1022B000137A044201EA03011AD0937A03F003036C
:1022C00009B143F0040343F008039910013B9172F4
:1022D0000D2B0BD8DFE803F01E0719070A141E1E8A
:1022E000140A0719071ED368013BD36010BC70475E
:1022F000937A03F003030029E7D043F00403E4E7F3
:10230000D36810BC023BD3607047D36810BC023363
:10231000D3607047D36810BC0133D360704700BFEF
:10232000709CFF1F1F4B10B45A6C136850681978CB
:102330000478507A137A044201EA03011AD0937A9E
:1023400003F0030309B143F0040343F008039910B9
:10235000013B91720D2B0BD8DFE803F01E07190724
:102360000A141E1E140A0719071ED368013BD36006
:1023700010BC7047937A03F003030029E7D043F0C1
:102380000403E4E7D36810BC023BD3607047D36812
:1023900010BC0233D3607047D36810BC0133D360E4
:1023A000704700BF709CFF1F1F4B10B49A6C1368DE
:1023B000506819780478507A137A044201EA0301CC
:1023C0001AD0937A03F0030309B143F0040343F0F6
:1023D00008039910013B91720D2B0BD8DFE803F035
:1023E0001E0719070A141E1E140A0719071ED368B0
:1023F000013BD36010BC7047937A03F003030029BC
:10240000E7D043F00403E4E7D36810BC023BD36099
:102410007047D36810BC0233D3607047D36810BCD8
:102420000133D360704700BF709CFF1F1F4B10B477
:10243000DA6C1368506819780478507A137A044279
:1024400001EA03011AD0937A03F0030309B143F0C0
:10245000040343F008039910013B91720D2B0BD834
:10246000DFE803F01E0719070A141E1E140A0719D5
:10247000071ED368013BD36010BC7047937A03F00A
:1024800003030029E7D043F00403E4E7D36810BC5A
:10249000023BD3607047D36810BC0233D3607047EF
:1024A000D36810BC0133D360704700BF709CFF1F1E
:1024B0001F4B10B41A6D1368506819780478507A5D
:1024C000137A044201EA03011AD0937A03F003035A
:1024D00009B143F0040343F008039910013B9172E2
:1024E0000D2B0BD8DFE803F01E0719070A141E1E78
:1024F000140A0719071ED368013BD36010BC70474C
:10250000937A03F003030029E7D043F00403E4E7E0
:10251000D36810BC023BD3607047D36810BC023351
:10252000D3607047D36810BC0133D360704700BFDD
:10253000709CFF1F1F4B10B45A6D136850681978B8
:102540000478507A137A044201EA03011AD0937A8C
:1025500003F0030309B143F0040343F008039910A7
:10256000013B91720D2B0BD8DFE803F01E07190712
:102570000A141E1E140A0719071ED368013BD360F4
:1025800010BC7047937A03F003030029E7D043F0AF
:102590000403E4E7D36810BC023BD3607047D36800
:1025A00010BC0233D3607047D36810BC0133D360D2
:1025B000704700BF709CFF1F1F4B10B49A6D1368CB
:1025C000506819780478507A137A044201EA0301BA
:1025D0001AD0937A03F0030309B143F0040343F0E4
:1025E00008039910013B91720D2B0BD8DFE803F023
:1025F0001E0719070A141E1E140A0719071ED3689E
:10260000013BD36010BC7047937A03F003030029A9
:10261000E7D043F00403E4E7D36810BC023BD36087
:102620007047D36810BC0233D3607047D36810BCC6
:102630000133D360704700BF709CFF1F1F4B10B465
:10264000DA6D1368506819780478507A137A044266
:1026500001EA03011AD0937A03F0030309B143F0AE
:10266000040343F008039910013B91720D2B0BD822
:10267000DFE803F01E0719070A141E1E140A0719C3
:10268000071ED368013BD36010BC7047937A03F0F8
:1026900003030029E7D043F00403E4E7D36810BC48
:1026A000023BD3607047D36810BC0233D3607047DD
:1026B000D36810BC0133D360704700BF709CFF1F0C
:1026C0001F4B10B41A6E1368506819780478507A4A
:1026D000137A044201EA03011AD0937A03F0030348
:1026E00009B143F0040343F008039910013B9172D0
:1026F0000D2B0BD8DFE803F01E0719070A141E1E66
:10270000140A0719071ED368013BD36010BC704739
:10271000937A03F003030029E7D043F00403E4E7CE
:10272000D36810BC023BD3607047D36810BC02333F
:10273000D3607047D36810BC0133D360704700BFCB
:10274000709CFF1F1F4B10B45A6E136850681978A5
:102750000478507A137A044201EA03011AD0937A7A
:1027600003F0030309B143F0040343F00803991095
:10277000013B91720D2B0BD8DFE803F01E07190700
:102780000A141E1E140A0719071ED368013BD360E2
:1027900010BC7047937A03F003030029E7D043F09D
:1027A0000403E4E7D36810BC023BD3607047D368EE
:1027B00010BC0233D3607047D36810BC0133D360C0
:1027C000704700BF709CFF1F1F4B10B49A6E1368B8
:1027D000506819780478507A137A044201EA0301A8
:1027E0001AD0937A03F0030309B143F0040343F0D2
:1027F00008039910013B91720D2B0BD8DFE803F011
:102800001E0719070A141E1E140A0719071ED3688B
:10281000013BD36010BC7047937A03F00303002997
:10282000E7D043F00403E4E7D36810BC023BD36075
:102830007047D36810BC0233D3607047D36810BCB4
:102840000133D360704700BF709CFF1F1F4B10B453
:10285000DA6E1368506819780478507A137A044253
:1028600001EA03011AD0937A03F0030309B143F09C
:10287000040343F008039910013B91720D2B0BD810
:10288000DFE803F01E0719070A141E1E140A0719B1
:10289000071ED368013BD36010BC7047937A03F0E6
:1028A00003030029E7D043F00403E4E7D36810BC36
:1028B000023BD3607047D36810BC0233D3607047CB
:1028C000D36810BC0133D360704700BF709CFF1FFA
:1028D0001F4B10B41A6F1368506819780478507A37
:1028E000137A044201EA03011AD0937A03F0030336
:1028F00009B143F0040343F008039910013B9172BE
:102900000D2B0BD8DFE803F01E0719070A141E1E53
:10291000140A0719071ED368013BD36010BC704727
:10292000937A03F003030029E7D043F00403E4E7BC
:10293000D36810BC023BD3607047D36810BC02332D
:10294000D3607047D36810BC0133D360704700BFB9
:10295000709CFF1F1F4B10B45A6F13685068197892
:102960000478507A137A044201EA03011AD0937A68
:1029700003F0030309B143F0040343F00803991083
:10298000013B91720D2B0BD8DFE803F01E071907EE
:102990000A141E1E140A0719071ED368013BD360D0
:1029A00010BC7047937A03F003030029E7D043F08B
:1029B0000403E4E7D36810BC023BD3607047D368DC
:1029C00010BC0233D3607047D36810BC0133D360AE
:1029D000704700BF709CFF1F1F4B10B49A6F1368A5
:1029E000506819780478507A137A044201EA030196
:1029F0001AD0937A03F0030309B143F0040343F0C0
:102A000008039910013B91720D2B0BD8DFE803F0FE
:102A10001E0719070A141E1E140A0719071ED36879
:102A2000013BD36010BC7047937A03F00303002985
:102A3000E7D043F00403E4E7D36810BC023BD36063
:102A40007047D36810BC0233D3607047D36810BCA2
:102A50000133D360704700BF709CFF1F1F4B10B441
:102A6000DA6F1368506819780478507A137A044240
:102A700001EA03011AD0937A03F0030309B143F08A
:102A8000040343F008039910013B91720D2B0BD8FE
:102A9000DFE803F01E0719070A141E1E140A07199F
:102AA000071ED368013BD36010BC7047937A03F0D4
:102AB00003030029E7D043F00403E4E7D36810BC24
:102AC000023BD3607047D36810BC0233D3607047B9
:102AD000D36810BC0133D360704700BF709CFF1FE8
:102AE0001F4B10B4D3F8802013685068197804780D
:102AF000507A137A044201EA03011AD0937A03F060
:102B0000030309B143F0040343F008039910013BA8
:102B100091720D2B0BD8DFE803F01E0719070A147A
:102B20001E1E140A0719071ED368013BD36010BC90
:102B30007047937A03F003030029E7D043F00403BE
:102B4000E4E7D36810BC023BD3607047D36810BC85
:102B50000233D3607047D36810BC0133D360704731
:102B6000709CFF1F1F4B10B4D3F88420136850686B
:102B700019780478507A137A044201EA03011AD0D2
:102B8000937A03F0030309B143F0040343F008030D
:102B90009910013B91720D2B0BD8DFE803F01E0753
:102BA00019070A141E1E140A0719071ED368013BD1
:102BB000D36010BC7047937A03F003030029E7D079
:102BC00043F00403E4E7D36810BC023BD3607047D2
:102BD000D36810BC0233D3607047D36810BC013394
:102BE000D3607047709CFF1F2DE9F041632984B0CA
:102BF00003DD90F8F874002F53D0136805460F4694
:102C000010461B6805F223219847C2B2C0F3072182
:102C1000561885F81E2247F30722F643FF234FF08C
:102C2000FE0EFCB285F82222421C85F8206285F84F
:102C30001F1285F81C3285F81DE285F821420DDB54
:102C400000F22221294405F22123002201E013F899
:102C5000014F99422244FAD1D343DBB22A1800F142
:102C60000807B7F5007F82F823321EDC002F05F538
:102C7000077616DD0730DFF81081064405F21B24C5
:102C800003E006F0BFFFB4420BD06A6814F8011FDE
:102C900013681B6843450846F3D010469847B44272
:102CA000F3D1384604B0BDE8F081344A0192344C87
:102CB0002B68039403228DF808201B6831498B424E
:102CC00055D10023382185F8232204F1300E85F8F0
:102CD000241285F8253285F8263285F8273205F545
:102CE0000A7627460FCF774530607160B260F36097
:102CF0003C4606F11006F4D103CC00227160C223D9
:102D00004FF0FF0EFE273D240721306085F820326A
:102D100085F81CE285F81D7285F81E4285F81F2291
:102D200085F8222285F8211205F2212305F25F2081
:102D300001E013F8011F98420A44FAD1D243DFF8A8
:102D4000488085F8602205F21B2405F5187603E01B
:102D500006F058FFB4420ED06A6814F8011F1368D9
:102D60001B6843450846F3D010469847F2E72846CB
:102D700001AA072198474FF0FF3093E72C04010088
:102D8000F8060100E92B0000A909000008B5094870
:102D900004F0A0FE084805F0D3F9074805F0F4F95F
:102DA00000B908BD054805F0CBF90448BDE8084066
:102DB00005F0EAB90088FF1F9C9BFF1F549BFF1F73
:102DC00010B5002382B0224A0260044601AA436083
:102DD0008360C3600DF102010DF106031D4805F08B
:102DE000EDF9BDF9020008F09FFB00221A4B08F034
:102DF00001FC15A3D3E9002308F0FCFB08F0BCFE9E
:102E00006060BDF9040008F08FFB0022124B08F04F
:102E1000F1FB0DA3D3E9002308F0ECFB08F0ACFEB6
:102E2000A060BDF9060008F07FFB00220A4B08F005
:102E3000E1FB05A3D3E9002308F0DCFB08F09CFECE
:102E4000E060204602B010BD00000060B89E234044
:102E5000740401009C9BFF1F0000103FFFFFFFFF59
:102E600010B5002382B0264A0260044601AA4360DE
:102E70008360C3600DF102010DF10603214805F0E6
:102E8000BFF9BDF9020008F04FFB19A3D3E90023F5
:102E900008F0DAFC18A3D3E9002308F0ABFB08F034
:102EA0006BFE6060BDF9040008F03EFB10A3D3E99F
:102EB000002308F0C9FC10A3D3E9002308F09AFB13
:102EC00008F05AFEA060BDF9060008F02DFB08A32B
:102ED000D3E9002308F0B8FC07A3D3E9002308F0E6
:102EE00089FB08F049FEE060204602B010BD00BF3B
:102EF0000000000000606040000000A046DF913F3D
:102F000074040100549BFF1FF8B5044615460E4695
:102F1000084602211F4605F0D5FD2846022105F08E
:102F2000D1FD9F4A276052F83610012301F5007049
:102F3000E060237552F83520637502F500770020B4
:102F40004BF680332761A061013BFDD191F800323F
:102F500092F8002203F00103D20744BF43F00203BA
:102F6000DBB2A37504F10C07212E00F24983DFE8E0
:102F700016F03C0333032A03210318030F0306034F
:102F8000FD02F402EB02E202D9028C0283027A0211
:102F9000710268025F0256024D0244023B02320295
:102FA0002902200217020E020502FC01F301EA01C8
:102FB000E101D70122007B4B7B49C3F884700422D6
:102FC000212005F0A9FB01232377212D00F2168390
:102FD000DFE815F09C01920188017E0174016A010D
:102FE000600156014C01420138012E0124011A01F1
:102FF0001001DB00D100C700BD00B300A9009F0095
:1030000095008B00810077006D00630059004F0030
:1030100045003B0030002200624B6349C3F88470D6
:103020000422212005F078FB237F0122134423771B
:103030002046F8BD5B4B5D49C3F880700422202018
:1030400005F06AFB237F0122F0E7564B5849DF6702
:1030500004221F2005F060FB237F0122E6E7514B8D
:1030600054499F6704221E2005F056FB237F01224E
:10307000DCE74C4B50495F6704221D2005F04CFBF8
:10308000237F0122D2E7474B4C491F6704221C20B3
:1030900005F042FB237F0122C8E7424B4849DF6627
:1030A00004221B2005F038FB237F0122BEE73D4BA5
:1030B00044499F6604221A2005F02EFB237F01223B
:1030C000B4E7384B40495F660422192005F024FB21
:1030D000237F0122AAE7334B3C491F6604221820B4
:1030E00005F01AFB237F0122A0E72E4B3849DF654C
:1030F0000422172005F010FB237F012296E7294BBD
:1031000034499F650422162005F006FB237F012227
:103110008CE7244B30495F650422152005F0FCFA4A
:10312000237F012282E71F4B2C491F6504221420B4
:1031300005F0F2FA237F012278E71A4B2849DF6471
:103140000422132005F0E8FA237F01226EE7154BD5
:1031500024499F640422122005F0DEFA237F012215
:1031600064E7104B20495F640422112005F0D4FA73
:10317000237F01225AE70B4B1C491F6404221020B5
:1031800005F0CAFA237F012250E7064B1849DF6396
:1031900004220F2005F0C0FA237F012246E700BF7A
:1031A000AC080100709CFF1F652B0000E12A0000A5
:1031B0005D2A0000D929000055290000D12800000F
:1031C0004D280000C927000045270000C126000047
:1031D0003D260000B925000035250000B12400007F
:1031E0002D240000A923000025230000A1220000B7
:1031F0001D220000A94BAA499F6304220E2005F05E
:103200008BFA237F012211E7A44BA6495F630422B6
:103210000D2005F081FA237F012207E79F4BA24989
:103220001F6304220C2005F077FA237F0122FDE6BC
:103230009A4B9E49DF6204220B2005F06DFA237F32
:103240000122F3E6954B9A499F6204220A2005F079
:1032500063FA237F0122E9E6904B96495F620422DC
:10326000092005F059FA237F0122DFE68B4B9249B2
:103270001F620422082005F04FFA237F0122D5E6C1
:10328000864B8E49DF610422072005F045FA237F33
:103290000122CBE6814B8A499F610422062005F07A
:1032A0003BFA237F0122C1E67C4B86495F61042201
:1032B000052005F031FA237F0122B7E6774B8249DA
:1032C0001F610422104605F027FA237F0122ADE694
:1032D000724B7E49DF600422032005F01DFA237F34
:1032E0000122A3E66D4B7A499F600422022005F07B
:1032F00013FA237F012299E6684B76495F60042226
:10330000012005F009FA237F01228FE6634B724901
:103310001F600422002005F0FFF9237F012285E6CB
:103320005E4B6E49C3F880700422202005F0F4F94A
:10333000012349E6594B6A49DF6704221F2005F043
:10334000EBF9012340E6554B66499F6704221E2096
:1033500005F0E2F9012337E6504B63495F67042229
:103360001D2005F0D9F901232EE64C4B5F491F675C
:1033700004221C2005F0D0F9012325E6474B5C49C7
:10338000DF6604221B2005F0C7F901231CE6434B2E
:1033900058499F6604221A2005F0BEF9012313E65E
:1033A0003E4B55495F660422192005F0B5F901230B
:1033B0000AE63A4B51491F660422182005F0ACF981
:1033C000012301E6354B4E49DF650422172005F045
:1033D000A3F90123F8E5314B4A499F6504221620E1
:1033E00005F09AF90123EFE52C4B47495F6504226C
:1033F000152005F091F90123E6E5284B43491F65A7
:103400000422142005F088F90123DDE5234B40490F
:10341000DF640422132005F07FF90123D4E51F4B5C
:103420003C499F640422122005F076F90123CBE584
:103430001A4B39495F640422112005F06DF901230C
:10344000C2E5164B35491F640422102005F064F9CB
:103450000123B9E5114B3249DF6304220F2005F047
:103460005BF90123B0E50D4B0D499F6304220E204B
:1034700005F052F90123A7E5084B0A495F630422CE
:103480000D2005F049F901239EE5044B06491F6311
:1034900004220C2005F040F9012395E5709CFF1FE4
:1034A0009921000015210000912000000D2000004E
:1034B000891F0000051F0000811E0000FD1D000087
:1034C000791D0000F51C0000711C0000ED1B0000C0
:1034D000691B0000E51A0000611A0000E12A0000E3
:1034E0005D2A0000D929000055290000D1280000DC
:1034F0004D280000C927000045270000C126000014
:103500003D260000B925000035250000B12400004B
:103510002D240000A923000025230000A122000083
:103520001D220000374B3849DF6204220B2005F0D2
:10353000F3F8012348E5334B34499F6204220A2003
:1035400005F0EAF801233FE52E4B31495F62042282
:10355000092005F0E1F8012336E52A4B2D491F62C9
:103560000422082005F0D8F801232DE5254B2A492F
:10357000DF610422072005F0CFF8012324E5214B69
:1035800026499F610422062005F0C6F801231BE5A9
:103590001C4B23495F610422052005F0BDF801237F
:1035A00012E5184B1F491F610422104605F0B4F8BC
:1035B000012309E5134B1C49DF600422032005F0B9
:1035C000ABF8012300E50F4B18499F60042202204D
:1035D00005F0A2F80123F7E40A4B15495F600422C5
:1035E000012005F099F80123EEE4064B11491F6014
:1035F0000422002005F090F80123E5E4002215E5FF
:103600000023E1E4709CFF1F0D200000891F0000D3
:10361000051F0000811E0000FD1D0000791D000037
:10362000F51C0000711C0000ED1B0000691B000070
:10363000E51A0000611A00002DE9F04F072193B050
:10364000C448C54C03F0E8FF5A21C24803F0EAFF22
:1036500000234FF46142A260C4F8E43404F27C42D7
:10366000C4F8E834C4F8F034C4F8EC3402E00133B0
:10367000192B0AD052F8041F0029F8D103F59071D4
:10368000B64A44F8212064335360B54A002302E06F
:103690000133192B0AD052F8041F0029F8D103F581
:1036A0009071B04A44F8212064335360AE4A00233D
:1036B00002E00133192B0BD052F8041F0029F8D176
:1036C000AA4A04EB83017D33C1F81C249360D460C3
:1036D000A54A002302E00133192B0BD052F8041F36
:1036E0000029F8D1A24A04EB83017D33C1F81C24E0
:1036F0009360D4609F4B94F8F824DFF894A29E4E18
:10370000DFF8909202930192A3F50775019B002BBD
:1037100040F0E38033680A93DDF828B0D4F8003530
:1037200042F6F822C3EB0B03934284BF9DF80430AA
:1037300085F8F834D4F8E43433B1D5F804359B4532
:1037400084BF0023C5F8E434A2693AB133680E930C
:103750000E9BCBEB03039A42C0F0DE8160680368E6
:103760005B694B4554D106F063F9002853DBD4F86C
:10377000F434D4F8E4240344072AC4F8F43400F001
:1037800021817AB9FF2800F0308133680D930D9BB9
:1037900041F28831CBEB03038B42D5D96E4B83F8D2
:1037A000F824B7E7012A00F02881022A00F0798185
:1037B000032A00F08181042A00F08881052A00F0A4
:1037C0009481062A00F09981082ABDD16B4A1A40DB
:1037D00000239A42C4F8E434C0F2A881FF2AB3D18E
:1037E000D4F8EC34002B00F0F6820A2B00F0A7810D
:1037F000062B00F0E7810B2B00F09D81BC3355F8C0
:1038000023000028A0D003685D491B6898479BE708
:1038100098470028ABDA94F8F8340193002B3FF472
:1038200079AFD5F8FC3440F6C412C3EB0B039342D6
:103830007FF66CAFFF21FE27524B85F81C12082142
:10384000002285F81D7285F81E12F7270A2103F160
:10385000090085F8232285F8242285F8252285F899
:10386000262285F8272285F8282285F8292285F83E
:103870002A2285F81F2285F8222285F8207285F8F1
:10388000211201E013F8011F98420A44FAD1029B69
:10389000D24384F82B22984603F10F07FF2105E05D
:1038A00006F0B0F9B8450BD018F8011F626813682C
:1038B0001B6853450846F3D010469847B845F3D1E6
:1038C00033680993099BE36094F8F8340193019BF2
:1038D000C4F8FCB4002B3FF41DAF2B4E2B4D0FCE84
:1038E0000FC5326825F8022B2B46110C012603F870
:1038F000191900224FF0130C4FF0FF0EFE27284637
:1039000084F82362E7251826072184F824C284F866
:10391000252284F8262284F8272284F81F2284F89E
:10392000222284F81CE284F81D7284F81E6284F856
:10393000205284F8211201E013F8011F98420A4432
:10394000FAD1029DD24384F83B2205F11F06FF21E4
:1039500028E000BFD094FF1FE895FF1FAC94FF1F25
:10396000649AFF1F4494FF1F009AFF1FFC9BFF1FD8
:10397000189CFF1F0498FF1FFC9CFF1FFF00008086
:103980000496FF1F0998FF1F340701001098FF1FBE
:10399000A90900009107000006F034F9B5420BD0E8
:1039A00015F8011F626813681B6853450846F3D079
:1039B00010469847B542F3D1012005F089F813B0BD
:1039C000BDE8F08FD5F8F024D5F8E834A918013B0C
:1039D00001320877C5F8F024C5F8E834002B7FF4ED
:1039E000B3AE0823C4F8E434AEE601220BF11403AD
:1039F000C5F8E424C5F80435A6E6FE2871D095F88C
:103A0000F8240023C5F8E434002A7FF49DAEFF219A
:103A1000FE27654B85F81C12082185F81D7285F874
:103A20001E12F7270A2185F8232285F8242285F81B
:103A3000252285F8262285F8272285F8282285F870
:103A4000292285F82A2285F81F2285F8222203F1EF
:103A5000090085F8207285F8211201E013F8011F92
:103A600083420A44FAD1029BD24384F82B221F4698
:103A700003F10F08FF2105E006F0C4F847450BD01D
:103A800017F8011F626813681B6853450846F3D096
:103A9000104698474745F3D133680C930C9BE3607D
:103AA00052E600220323C5F8E804C5F8F404C5F87B
:103AB000F024C5F8E43447E6D5F8E83403EB0020F9
:103AC0000423C5F8E804C5F8E4343DE6374A1A4053
:103AD000002A26DBFF2A0CBF05230023C4F8E434A8
:103AE00032E60223C5F8E4342EE60623C5F8EC04DA
:103AF000C5F8F404C5F8E43426E6D5F8EC34D5F876
:103B0000E82403EB00230721C5F8EC34C5F8E414DE
:103B1000002A3FF466AF17E6254B93F8F83401937B
:103B2000F4E5013A62F0FF020132D3E7013A62F0B4
:103B3000FF02013252E6002385F8F83404E63368C8
:103B40000F930F9BEA681B48316811919B1A296AF1
:103B5000DFF868E0DFF86880DDF844C0EA69A0FBC0
:103B60000307BF094FF47A708E4400FB173308FB3C
:103B700003E303930F4B1049A3FB0C3E4FEA9E1E39
:103B8000039B013A00FB1EC03A4408FB1033CEEB06
:103B90000202081F6B612A6103F09CFE33681093D8
:103BA000109BC5F80035CFE50998FF1FFF00008086
:103BB000E895FF1FD34D6210FC95FF1F00CA9A3B8A
:103BC00040420F00EF69D5F810359F4206D9B90081
:103BD000D5F8180508F05AFEC5F81805C4F8107590
:103BE000002F00F0E680A14A042302F2145E0027B1
:103BF00092F8221092F821C092F82000090441EABC
:103C00000C2192F823C0014341EA0C61C4F8141559
:103C1000D4F81815DEF8000041F82700D4F8100594
:103C20000137B842194602F1040203F10403DFD858
:103C3000059301F10B0301F1090201F10808049356
:103C400001F10C0303924746481D01F1060E01F1F4
:103C5000070C01F10A020693A644059B2118234490
:103C60009EF81C0091F81CE01B7FD4F81C15A4449E
:103C700000049CF81CC040EA0E20034343EA0C6396
:103C80008B420AD99900D5F824050792059308F0CC
:103C9000FDFD079A059BC5F82405C4F81C35002BCB
:103CA00000F0E280DFF8D0E1EB1900219A7F93F871
:103CB0001DC0187F120442EA0C2293F81FC0024371
:103CC00042EA0C62C4F82025D4F82425DEF800006E
:103CD00042F82100D4F81C2501318A42384603F10C
:103CE000040307F10407E1D8431D0393C31DB8463D
:103CF000821D049300F10807039B23442244187F8C
:103D0000049B117FD4F82825A04423449E4609042F
:103D100098F81C309EF81C8041EA00210B4343EACE
:103D20000868904507D94FEA8801D5F8300508F0B2
:103D3000ADFDC5F83005C4F82885B8F1000F34D0C2
:103D4000DFF838E100210EF5A26C07F11C08002312
:103D5000A0441A4618F8010B98400833202B42EA79
:103D60000002F7D1381D024490420AD207F11F0326
:103D700023440746013793F8018003F8018B9742EB
:103D8000F8D3A3184FF000070138DF767044D4F859
:103D90003035C4F82C05DCF8000043F82100D4F8D5
:103DA000283501318B421746CFD8012384F80835D6
:103DB000CAE40C2306930B23049309234FF008084D
:103DC0000393042347460A224FF0070C4FF0060ED8
:103DD0000520059340E72648A0F22A2100F8073C79
:103DE000FE2781F81C224FF0080C0A4681F8243285
:103DF00081F8253281F8263281F8273281F828327D
:103E000081F8293281F82A3281F81D7281F81F3237
:103E100081F82232A0F1090EF72781F81EC20A218B
:103E200082F8207282F82112724601E012F8011F16
:103E300090420B44FAD10F4FDB43A7F10F020292DD
:103E400084F82B329046FF2105E005F0DBFEB845F3
:103E500016D018F8011F626813681B68534508469E
:103E6000F3D010469847F2E7069F45E7E895FF1F15
:103E70001298FF1F1398FF1F089BFF1F0496FF1F38
:103E800033680B93D14BCDF804B01A460B9BE3601B
:103E900093465BF8043F002B00F0BF8058689A6897
:103EA00001680392D3F800908B689847DBF80030E4
:103EB000804658680368DB689847DBF80030039A4F
:103EC0001E69632E074604DD94F8F834002B00F0D9
:103ED000A480C2F30723484684F8232284F82432BE
:103EE00008F00EFF0346020A000C4FEA136E494623
:103EF00084F8262284F827021A46B54884F8253229
:103F0000039384F828E204F0C7FA404608F0F8FE6C
:103F1000039B024603F2292020440633002122FAA3
:103F200001FE0831202900F801EBF8D1A94804333B
:103F30004146184402EB030804F0AEFA384608F094
:103F4000DFFE08F2232281462244002329FA03F1EE
:103F50000833202B02F8011BF8D19E4B08F104080E
:103F6000394603EB08004A4604F096FA09EB0800CC
:103F7000071D5FFA87FCC7F3072E04EB00080CEB64
:103F80000E010022C943022388F8243288F8232234
:103F900088F8252288F8262284F82012F1B246F308
:103FA0000726FF234FF0FE0884F822627E1C84F867
:103FB0001EC284F81FE284F81C3284F81D8284F843
:103FC00021120BDB00F22626834B2E4401E013F86E
:103FD000011FB3420A44FAD1D343DBB2E2190837D6
:103FE000B7F5007F82F8233200F34B81002F14DDF8
:103FF00000F22720794E2F1803E005F003FEBE42A1
:104000000BD0626816F8011F13681B6853450846F9
:10401000F3D010469847BE42F3D1714B9B457FF4D5
:1040200038AF9B465BF8040F002800F0BF8090E893
:104030000C0003939268D0F8089090478046DBF814
:1040400000000268D26890470746DBF8000002686B
:104050005268904763280646039B04DD94F8F824D1
:10406000002A00F0A380C3F30722484684F82332D5
:1040700084F8242208F044FE0346020A000C4FEAAA
:10408000136E494684F8262284F827021A465048BF
:1040900084F82532039384F828E204F0FDF94046C1
:1040A00008F02EFE039B024603F22920204406332B
:1040B000002122FA01FE0831202900F801EBF8D195
:1040C000444804334146184402EB030804F0E4F981
:1040D000384608F015FE08F22322814622440023C8
:1040E00029FA03F10833202B02F8011BF8D1394BD0
:1040F00008F10408394603EB08004A4604F0CCF9FD
:1041000009EB0800071D5FFA87FCC7F3072E04EBD5
:1041100000080CEB0E010022C943022388F8243268
:1041200088F8232288F8252288F8262284F820128D
:10413000F1B246F30726FF234FF0FE0884F822620F
:104140007E1C84F81EC284F81FE284F81C3284F8B6
:104150001D8284F821120BDB00F226261E4B2E4412
:1041600001E013F8011FB3420A44FAD1D343DBB292
:10417000E2190837B7F5007F82F8233234DC002FCC
:1041800014DD00F22720154E2F1803E005F03AFD4C
:10419000B7420BD0626816F8011F13681B685345BD
:1041A0000846F3D010469847B742F3D10D4B9B45D4
:1041B0007FF438AFDDF804B0C4F8FCB40123C4F8D0
:1041C00000B584F8F834FFF788BB00BF009AFF1FE2
:1041D0001198FF1F0B98FF1F0998FF1F0398FF1FDF
:1041E000649AFF1FC89AFF1F4D4F4E4E0FCF0FC648
:1041F0000FCF0FC60FCF0FC697E8030000234FF075
:10420000030E3827FF2285F823E285F824724FF049
:10421000FE0E3D2785F8253285F8263285F82732AF
:1042200086E80300C22185F81C220722F01D85F8CC
:104230001F3285F82232373E85F81DE285F81E725E
:1042400085F8201285F8212201E016F8012FB042EE
:104250001344FAD1344EDB4384F86032A6F14407AC
:10426000FF2005E005F0CEFCBE429FD017F8010FFD
:10427000626813681B6853450146F3D0104698479F
:10428000F2E7274F274E0FCF0FC60FCF0FC60FCF26
:104290000FC697E8030000234FF0030E3827FF22D4
:1042A00085F823E285F824724FF0FE0E3D2785F84D
:1042B000253285F8263285F8273286E80300C221A8
:1042C00085F81C220722F01D85F81F3285F822325E
:1042D000373E85F81DE285F81E7285F8201285F8B4
:1042E000212201E016F8012F86421344FAD10E4E26
:1042F000DB4384F86032A6F14407FF2006E005F0B6
:1043000081FCB7423FF489AE17F8010F6268136869
:104310001B6853450146F2D010469847F1E700BFAD
:10432000F80601001098FF1F4898FF1F2DE9F0477D
:1043300084B0DD4D6846FEF743FD0199029A039B68
:10434000A960EA602B616846FEF78AFDD74AD84922
:10435000D468DDF804902368DDF80880D3F800A065
:10436000039F9668C5F8189000238A45C5F81C80FD
:104370002F62AB62EB622B6340F0AD81632E04DDF4
:1043800094F8F834002B00F06781A868C0F3C75296
:104390000346002A40F0638192461146C3F3C342AC
:1043A00011434FEA431E002284F82912D910DB1270
:1043B00084F8271284F8232284F8242284F8252202
:1043C00084F826E284F82832002107F0D1FE002884
:1043D00040F0608184F82AA2E868C0F3C75203461F
:1043E000002A00F0498102F56072110149B2C2F35E
:1043F000071AC3F3C34211434FEA431E002284F855
:104400003112D910DB1284F82F1284F82B2284F891
:104410002C2284F82D2284F82EE284F830320021F8
:1044200007F0A6FE002840F0308184F832A2286907
:10443000C0F3C7520346002A00F0248102F56072DF
:10444000110149B2C2F30715C3F3C34211434FEA46
:10445000431E002284F83912D910DB1284F8371277
:1044600084F8332284F8342284F8352284F836E242
:1044700084F83832002107F07BFE002840F00F81DD
:1044800084F83A52C9F3C7524B46002A00F0F7802D
:1044900002F56072110149B2C2F30715C3F3C342BA
:1044A00011434FEA431E002284F84112D910DB1257
:1044B00084F83F12484684F83B2284F83C2284F872
:1044C0003D2284F83EE284F84032002107F050FE9D
:1044D000002840F0F68084F84252C8F3C7524346A1
:1044E000002A00F0C68002F5607215016DB2C2F3B9
:1044F0000719C3F3C3410D434FEA431E0021DA10ED
:10450000DB1284F8431284F8441284F845124046C2
:1045100084F8495284F846E284F8472284F8483205
:10452000002107F025FE002840F0C68084F84A925A
:10453000C7F3C7523B46002A00F0988002F560722C
:10454000110149B2C2F30715C3F3C34211434FEA45
:10455000431E002284F85112D910DB1284F84F1246
:10456000384684F84B2284F84C2284F84D2284F893
:104570004EE284F85032002107F0FAFD002840F0A6
:10458000A58084F8525200224820B723F1B2FF27B9
:10459000FE2546F3072684F81E0284F8203284F8AC
:1045A000532284F8542284F8552284F8562284F841
:1045B000572284F8582284F8592284F85A2284F821
:1045C0005B2284F85C2284F85D2284F85E2284F801
:1045D0005F2284F8602284F8612284F8622284F8E1
:1045E000632284F8642284F8652284F8662284F8C1
:1045F000672284F8682284F8692284F86A2284F8A1
:104600001F2284F81C7284F81D5284F8211284F849
:10461000226204F2212304F26A2001E013F8011F50
:1046200098420A44FAD1D243224E84F86B2204F213
:104630001B2504F26B2703E005F0E4FABD420BD022
:10464000626815F8011F13681B68B3420846F3D06F
:1046500010469847BD42F3D104B0BDE8F08702F59B
:104660006072110149B2C2F3071A97E61546114666
:104670006AE7914615463CE792461146B9E615466B
:1046800011460BE715461146DEE66AF07F0284F814
:104690003222CCE66AF07F0284F82A229CE665F09A
:1046A0007F0284F83A22EDE6209BFF1F189CFF1F33
:1046B000E92B0000A909000069F07F0284F84A2272
:1046C00036E765F07F0284F8422206E765F07F0254
:1046D00084F8522257E72A4631462046D04704B094
:1046E000BDE8F08738B51849054607F041FD20BB05
:1046F00004461649284607F059FDB8B9134928461B
:1047000007F090FA124907F095FB124907F046FCB2
:10471000114907F087FA114907F08CFB07F050FDAB
:1047200001460F4802F07EFF284638BD074D0C4871
:10473000214602F077FF284638BD034D0848B421D2
:1047400002F070FF284638BDE17AD4BEE17AD43E4B
:10475000DB0F49C0E17A543FDB0F4940E02E654250
:10476000D094FF1FFFFFFFFF2DE9F04FDFF8D4A229
:10477000A14BA24ADAF80010A14C1B68126893B052
:104780000EA800919F4902F007FE237F012B40F203
:10479000CD8172B6A76962B69B4E606833680A9392
:1047A000DDF828B0994DC0EB0B0006F0ADFE90A3EC
:1047B000D3E9002307F048F8CDE90201A068381AD0
:1047C00006F0B2FEC4F804B08046A76020688946AF
:1047D00006F0AAFE02460B464046494607F034F86A
:1047E000DDE9022307F030F807F09EF92B7F012B5B
:1047F000804640F2D58172B6AF6962B633680993DC
:10480000DDF824906868824CC0EB090006F07CFE5D
:1048100077A3D3E9002307F017F8CDE90201A868D0
:10482000381A06F081FEC5F80490CDE90401AF60A6
:10483000286806F079FE02460B46DDE9040107F020
:1048400003F8DDE9022306F0FFFF07F06DF9237F8F
:10485000012B814640F2DE8172B6A76962B63368E9
:104860000893DDF820B060686A4DC0EB0B0006F0DD
:104870004BFE5FA3D3E9002306F0E6FFCDE902017A
:10488000A068381A06F050FEA760CDE90401C4F80C
:1048900004B0206806F048FE02460B46DDE904013C
:1048A00006F0D2FFDDE9022306F0CEFF07F03CF967
:1048B0002B7F012B074640F2E58172B6AC6962B6E8
:1048C000336807936868DDF81CB04E4EC0EB0B00F0
:1048D00006F01AFE46A3D3E9002306F0B5FFCDE9A2
:1048E0000201A868201A06F01FFEAC60CDE90401A1
:1048F000C5F804B0286806F017FE02460B46DDE94D
:10490000040106F0A1FFDDE9022306F09DFF07F098
:104910000BF90446404607F039FA05460E9807F0B1
:1049200035FA2A4601463C4802F0F2FF07F0FCF84F
:1049300001463A4802F080FF484607F027FA05464C
:104940000F9807F023FA2A460146354802F0E0FFA7
:1049500007F0EAF80146334802F06EFF384607F0E8
:1049600015FA0546109807F011FA2A4601462E4816
:1049700002F0CEFF07F0D8F801462C4802F05CFFA9
:10498000204607F003FA0546119807F0FFF92A467A
:104990000146274802F0BCFF07F0C6F8014625484B
:1049A00002F04AFF3378023B012B40F2B2800194BF
:1049B00000974B46424631460BA802F04DFD1E497A
:1049C0001E4FCC681E4D23680B981E680C9A0D9BD9
:1049D00089686860BE42AA60EB6040F094806329F9
:1049E00032DD94F8F854002D00F08A802CE000BFEE
:1049F00000000000004CED40149CFF1F109CFF1FA6
:104A00005895FF1F2895FF1FFC9CFF1FC895FF1F8F
:104A10008C94FF1FA895FF1F689BFF1FE094FF1F4A
:104A2000B89BFF1F4495FF1FF894FF1F2C9CFF1F8E
:104A30007895FF1FE89BFF1FFC9BFF1FE92B0000E1
:104A40007C94FF1F1C9BFF1F060A050C4FEA106E8B
:104A5000170A84F8230284F82722180C84F82462A9
:104A600084F82552160C1D0A120E84F82B3284F895
:104A700026E21B0E84F828724FF0FF0E84F829629C
:104A8000FE2784F82A220C2684F82C52002284F86F
:104A90002D02F325C8B241F3072184F82E3284F8A1
:104AA000221284F81CE284F81D7284F81E6284F8D5
:104AB0001F2284F8205284F8210204F2212304F2F8
:104AC0002E2101E013F8010F99420244FAD1D2439A
:104AD000B74E84F82F2204F21B2504F22F2703E09F
:104AE00005F090F8AF420BD0626815F8011F13680B
:104AF0001B68B3420846F3D010469847AF42F3D143
:104B000013B0BDE8F08F2A462046B04713B0BDE889
:104B1000F08FDAF80000FFF7E5FDCDF800900246CF
:104B2000434631460BA802F05BFC48E772B6E368E7
:104B300021691A780878617D237D084202EA030220
:104B400000F0F180A37D03F003030AB143F00403F6
:104B500043F008039A10013BA2750D2B3FF61AAEE5
:104B600001A252F823F000BFB54D0000A94D00008E
:104B7000A14D0000A94D000095470000994D00008F
:104B8000B54D0000B54D0000994D0000954700005F
:104B9000A94D0000A14D0000A94D0000B54D000039
:104BA00072B6EB6829691A780878697D2B7D08420E
:104BB00002EA030200F0AE80AB7D03F003030AB10A
:104BC00043F0040343F008039A10013BAA750D2B30
:104BD0003FF612AE01A252F823F000BF914D000043
:104BE000894D0000814D0000894D0000F94700000B
:104BF000794D0000914D0000914D0000794D00006D
:104C0000F9470000894D0000814D0000894D0000EA
:104C1000914D000072B6E36821691A780878617DC9
:104C2000237D084202EA030264D0A37D03F003035C
:104C30000AB143F0040343F008039A10013BA27544
:104C40000D2B3FF60AAE01A252F823F0714D000081
:104C5000694D0000614D0000694D00005B48000097
:104C6000594D0000714D0000714D0000594D00007C
:104C70005B480000694D0000614D0000694D000077
:104C8000714D000072B6EB6829691A780878697D61
:104C90002B7D084202EA030234D0AB7D03F003030C
:104CA000002A40F08B8043F008039A10013BAA755C
:104CB0000D2B3FF603AE01A252F823F0514D000038
:104CC000494D0000414D0000494D0000BD48000025
:104CD000394D0000514D0000514D0000394D00008C
:104CE000BD480000494D0000414D0000494D000005
:104CF000514D0000A37D03F00303002A9DD043F033
:104D000004039AE7AB7D03F00303002ACDD043F000
:104D10000403CAE7AB7D03F00303002A3FF454AF5A
:104D200043F0040350E7A37D03F00303002A3FF49C
:104D300011AF43F004030DE7AC69023CAC61BEE582
:104D4000AC690234AC61BAE5AC69013CAC61B6E572
:104D5000AC690134AC61B2E5A769023FA7617DE5AA
:104D6000A7690237A76179E5A769013FA76175E5E2
:104D7000A7690137A76171E5AF69023FAF613CE503
:104D8000AF690237AF6138E5AF69013FAF6134E524
:104D9000AF690137AF6130E5A769023FA761FAE467
:104DA000A7690237A761F6E4A769013FA761F2E4AA
:104DB000A9090000A7690137A761ECE443F00403E7
:104DC00071E700BF2DE9F041CB4B1A7F012A8EB06D
:104DD00040F2D28172B69A6962B6C84DC84901A83C
:104DE00007F05EFF012301A885F8233207F088FF52
:104DF0000446260C000A230E01A9224685F8250246
:104E000085F8266205F50A70661D85F8273285F853
:104E1000244203F041FBF1B2C6F307200A18FE2337
:104E2000D24385F81D3285F81E12FF23072185F82D
:104E30002022771C4FF0000285F81F0285F81C32F3
:104E400085F8211285F82222C0F22A8404F2272054
:104E5000284405F2212301E013F8011F98420A4477
:104E6000FAD1D243D2B2A91906F10803B3F5007FF3
:104E700081F82322A14E00F3C982002B17DD04F52F
:104E80000A7406EB04089F4F06F21B2403E004F0AB
:104E9000B9FE44450BD06A6814F8011F13681B68FB
:104EA000BB420846F3D0104698474445F3D1964B91
:104EB0001A7F012A40F29A8172B69A6962B69349C2
:104EC0008E4C01A807F0ECFE012301A885F82332DF
:104ED00007F016FF0646370C000A330E324601A9CA
:104EE00085F8250285F8267204F50A70771D85F885
:104EF000273285F8246203F0CFFAF9B2C7F307200E
:104F00000A18FE23D24385F81D3285F81E12FF23AE
:104F1000072185F8202285F81F020022781C85F8D9
:104F20001C3285F8211285F82222C0F2B38306F2E2
:104F30002720204404F2212301E013F8011F8342BB
:104F40000A44FAD1D243D2B2EB190837B7F5007F41
:104F500083F82322694C00F3AA82002F16DD06F5A0
:104F60000A762644674F04F21B2403E004F04AFE4D
:104F7000B4420BD06A6814F8011F13681B68BB4267
:104F80000846F3D010469847B442F3D1604B1A7FDD
:104F9000012A40F2658172B69A6962B65D49574C42
:104FA00001A807F07DFE012301A885F8233207F050
:104FB000A7FE0646370C000A330E324601A985F8D3
:104FC000250285F8267204F50A70771D85F82732C8
:104FD00085F8246203F060FAF9B2C7F307200A18D3
:104FE000FE23D24385F81D3285F81E12FF230721C8
:104FF00085F8202285F81F020022781C85F81C32D3
:1050000085F8211285F82222C0F2488306F2272073
:10501000204404F2212301E013F8011F98420A44BE
:10502000FAD1D243D2B2EB190837B7F5007F83F833
:105030002322324C00F38C82002F16DD06F50A760F
:105040002644304F04F21B2403E004F0DBFDB4429D
:105050000BD06A6814F8011F13681B68BB4208462E
:10506000F3D010469847B442F3D12B4B1A7F012A54
:1050700040F22E8172B69A6962B628491F4C01A887
:1050800007F00EFE012301A885F8233207F038FE51
:105090000646370C000A330E01A9324685F8250270
:1050A00085F8267204F50A70771D85F8273285F891
:1050B000246203F0F1F9F9B2C7F307200A18FE23BE
:1050C000D24385F81D3285F81E12FF23072185F88B
:1050D000202285F81F020022781C85F81C3285F8F2
:1050E000211285F82222C0F2D78206F2272020441E
:1050F00004F2212316E000BF5895FF1FE895FF1F1B
:1051000048070100A9090000C895FF1F64070100B6
:105110008C94FF1F80070100A895FF1F9C070100CA
:1051200013F8011F83420A44FAD1D243D2B2EB19D9
:105130000837B7F5007F83F82322B24C00F3598279
:10514000002F16DD06F50A762644AF4F04F21B2425
:1051500003E004F057FDB4420BD06A6814F8011F55
:1051600013681B68BB420846F3D010469847B44208
:10517000F3D10EB0BDE8F08172B6DA681869117823
:105180000478587D1A7D044201EA020100F0E780AC
:105190009A7D02F0030209B142F0040242F00802D3
:1051A0009110013A99750D2A3FF615AE01A151F8FB
:1051B00022F000BFB3530000AB530000A353000024
:1051C000AB530000D74D00009B530000B3530000C9
:1051D000B35300009B530000D74D0000AB530000B9
:1051E000A3530000AB530000B353000072B6DA685B
:1051F000186911780478587D1A7D044201EA020189
:1052000000F0A4809A7D02F0030209B142F004028A
:1052100042F008029110013A99750D2A3FF64DAE01
:1052200001A151F822F000BF935300008B530000FE
:10523000835300008B530000BB4E0000DB53000083
:105240009353000093530000DB530000BB4E00005B
:105250008B530000835300008B53000093530000D6
:1052600072B6DA68186911780478587D1A7D04429C
:1052700001EA020162D09A7D02F0030209B142F014
:10528000040242F008029110013A99750D2A3FF686
:1052900083AE01A151F822F0D3530000CB5300009C
:1052A000C3530000CB530000994F0000BB530000D4
:1052B000D3530000D3530000BB530000994F0000AC
:1052C000CB530000C3530000CB530000D353000066
:1052D00072B6DA68186911780478587D1A7D04422C
:1052E00001EA020144D19A7D02F00302002940F054
:1052F000DA819110013A99750D2A3FF6BCAE01A1F1
:1053000051F822F0FB530000F3530000EB53000070
:10531000F353000077500000E3530000FB530000FC
:10532000FB530000E353000077500000F3530000EC
:10533000EB530000F3530000FB5300009A7D02F092
:10534000030200299FD042F004029CE79A7D02F0FC
:10535000030200293FF45EAF42F004025AE79A7D4F
:1053600002F0030200293FF41BAF42F0040217E7EA
:105370009A7D02F0030209B142F0040242F00802F1
:10538000B7E79A6902329A6198E59A69013A9A6197
:1053900094E59A6901329A6190E59A69023A9A61B4
:1053A0001AE59A6902329A6116E59A69013A9A6198
:1053B00012E59A6901329A610EE59A69023A9A6198
:1053C000EBE59A6902329A61E7E59A69013A9A61D6
:1053D000E3E59A6901329A61DFE59A69023A9A61D6
:1053E0006CE59A69023A9A6146E69A6902329A61D4
:1053F00042E69A69013A9A613EE69A6901329A61F7
:105400003AE600BFE895FF1FA9090000A74F0FCF9C
:1054100006F50A740FC40FCF0FC40FCF0FC497E85F
:10542000030000220327382386F8237286F82432EB
:105430004FF0FF0C4FF0FE0E3D2786F8252286F830
:10544000262286F8272284E80300C2200721A4F13F
:10545000370386F81F2286F82222073486F81CC2FA
:1054600086F81DE286F81E7286F8200286F8211260
:1054700001E013F8011FA3420A44FAD18C4C8D4F6E
:10548000D24385F8602204F14406FF2006E004F0D0
:10549000B9FBA6423FF40BAD14F8010F6A6813681C
:1054A0001B68BB420146F2D010469847F1E77F4F98
:1054B0000FCF04F50A760FC60FCF0FC60FCF0FC65A
:1054C00097E8030000220327382384F8237284F826
:1054D00024324FF0FF0C4FF0FE0E3D2784F82522BA
:1054E00084F8262284F8272286E80300C2200721B8
:1054F000A6F1370384F81F2284F82222073684F8A5
:105500001CC284F81DE284F81E7284F8200284F81C
:10551000211201E013F8011F9E420A44FAD1644CA3
:10552000644FD24385F8602204F14406FF2006E070
:1055300004F068FBA6423FF429AD14F8010F6A6835
:1055400013681B68BB420146F2D010469847F1E74A
:10555000564F0FCF04F50A760FC60FCF0FC60FCFE9
:105560000FC697E8030000220327382384F823722C
:1055700084F824324FF0FF0C4FF0FE0E3D2784F8E4
:10558000252284F8262284F8272286E80300C220F8
:105590000721A6F1370384F81F2284F82222073658
:1055A00084F81CC284F81DE284F81E7284F820027C
:1055B00084F8211201E013F8011F9E420A44FAD137
:1055C0003B4C3C4FD24385F8602204F14406FF2057
:1055D00006E004F017FBB4423FF447AD14F8010FA6
:1055E0006A6813681B68BB420146F2D010469847B0
:1055F000F1E72E4F0FCF04F50A760FC60FCF0FC677
:105600000FCF0FC697E8030000220327382384F842
:10561000237284F824324FF0FF0C4FF0FE0E3D272A
:1056200084F8252284F8262284F8272286E80300BD
:10563000C2200721A6F1370384F81F2284F8222212
:10564000073684F81CC284F81DE284F81E7284F8C0
:10565000200284F8211201E013F8011F9E420A443F
:10566000FAD1134C134FD24385F8602204F144065B
:10567000FF2006E004F0C6FAB4423FF47AAD14F815
:10568000010F6A6813681B68BB420146F2D01046DE
:105690009847F1E71A4657E41A4648E51A46C2E425
:1056A0001A46FFF7E0BB42F0040222E6F8060100CA
:1056B0000498FF1FA90900002DE9F04FB94EBA4C1C
:1056C0003368226897B00493049B9B1A312B00F235
:1056D00034823368B54A0693069B12689B1AB3F569
:1056E000C87F06D3B248B349B34A002303600B60B6
:1056F00013603368B14F0793079B3A689B1A312BAD
:1057000000F2A981AE4C3368AE4D0993099B2A681B
:10571000A44F9B1AC72B05D9FFF754FB3B680A938C
:105720000A9B2B6033680B930B9FD4F80035A44978
:10573000FB1A42F6F822934284BF002381F8F83422
:10574000D4F8E4349E4A33B1D2F804359F4284BF82
:105750000023C2F8E434DFF87882994DA2692AB1B7
:1057600033680F930F9BDB1B9A4221D36068036859
:105770005B6943456AD104F05BF9002869DBD4F822
:10578000F434D4F8E424DFF838E20344072AC4F8F8
:10579000F43449D07AB9FF2800F0B88033680E930A
:1057A0000E9B41F28831DB1B8B42D7D98EF8F8244F
:1057B00017B0BDE8F08F012A00F0B080022A00F097
:1057C0001D81032A00F02581042A00F02C81052A7E
:1057D00000F03981062A00F0A181082ABED17A4A58
:1057E0001A4000239A42C4F8E434C0F20B82FF2A24
:1057F000B4D1D4F8EC34DFF8C8A1002B00F06A83F0
:105800000A2B00F00882062B00F04E820B2B00F0D2
:10581000FE81BC3355F8230000289FD003680AF1AD
:105820001C011B68984799E7D5F8F024D5F8E834AF
:10583000A918013B01320877C5F8F024C5F8E8340F
:10584000002B8BD10823C4F8E43487E7984700285D
:1058500095DA94F8F8345A48002BA9D0D0F8FC34E3
:1058600040F6C412FB1A9342A2D9FF23FE21002264
:1058700080F81C3280F81D12F72308250A2180F8D1
:10588000203280F8232280F8242280F8252280F814
:10589000262280F8272280F8282280F8292280F802
:1058A0002A2280F81F2280F8222280F81E5280F8D7
:1058B000211200F2212300F22A2001E013F8011F37
:1058C00083420A44FAD1DFF80C81404DD24384F878
:1058D0002B2208F10F09FF2005E004F093F9C145E0
:1058E0000BD018F8010F626813681B68AB420146C1
:1058F000F3D010469847C145F3D133681393139BF7
:10590000C4F8FC74E36017B0BDE8F08F012207F122
:105910001403C5F8E424C5F804351FE7FE2800F099
:105920008E8095F8F8240023C5F8E434002A7FF42B
:1059300015AFFF23FE21082085F81C3285F81D12C3
:10594000F7230A2185F8203285F823220EF221233D
:1059500085F8242285F8252285F8262285F8272235
:1059600085F8282285F8292285F82A2285F81F2221
:1059700085F8222285F81E0285F821120EF22A2EC1
:1059800001E013F8011F9E450A44FAD1DFF844A054
:10599000DFF83890D24384F82B220AF10F0BFF2155
:1059A0001CE000BFFC9CFF1FDC94FF1FD894FF1F6E
:1059B000109CFF1F149CFF1F1C9BFF1F989BFF1F29
:1059C000E895FF1FAC9BFF1FFF000080A9090000A6
:1059D000910700000498FF1F1AF8011F62681368FE
:1059E0001B684B45084640F0CB8204F00BF9DA45C2
:1059F000F2D133680D930D9BE360AFE600220323E1
:105A0000C5F8E804C5F8F404C5F8F024C5F8E43492
:105A1000A4E6D5F8E83403EB00200423C5F8E80435
:105A2000C5F8E4349AE6964A1A40002AC0F2E580A6
:105A3000FF2A0CBF05230023C4F8E4348EE60223BA
:105A4000C5F8E4348AE60623C5F8EC04C5F8F40486
:105A5000C5F8E43482E68B4C25783DB1FEF766FC50
:105A6000894C33680893089B3B604CE6FDF78EF940
:105A700084462070002867D0844B834C0FCB04F5FC
:105A80000A7EAEE807002EF8023B01211B0C8EF8BF
:105A900000301420EB234FF00F094FF0FF084FF0B8
:105AA000FE0C84F82312072184F81E0284F82032A9
:105AB00084F8255284F8265284F8275284F81F521D
:105AC00084F822522A4684F8249284F81C8284F8AE
:105AD0001DC284F8211204F2212304F2362001E0D1
